:020000040800F2
:10000000A0060020CD010008990500089105000810
:10001000950500085F040008590B00080000000067
:100020000000000000000000000000005107000870
:10003000630400080000000021060008950800087D
:10004000E7010008E7010008E7010008E7010008F0
:10005000E7010008E7010008E7010008E7010008E0
:10006000E7010008E7010008E7010008E7010008D0
:10007000E7010008E7010008E7010008E7010008C0
:10008000E7010008E7010008E7010008E7010008B0
:10009000E7010008E7010008E7010008E7010008A0
:1000A000E7010008E7010008E7010008E701000890
:1000B000E7010008E7010008E7010008E701000880
:1000C000E7010008E7010008E7010008E701000870
:1000D000E7010008F9080008E7010008E701000847
:1000E000E7010008E7010008E7010008E701000850
:1000F000E7010008E7010008E7010008E701000840
:10010000E7010008E7010008E7010008E70100082F
:10011000E7010008E7010008E7010008E70100081F
:10012000E7010008E7010008E7010008E70100080F
:1001300000F002F800F03AF80AA090E8000C8244BF
:100140008344AAF10107DA4501D100F02FF8AFF29C
:10015000090EBAE80F0013F0010F18BFFB1A43F0A5
:1001600001031847D01B0000F01B0000103A24BF09
:1001700078C878C1FAD8520724BF30C830C144BF0C
:1001800004680C607047000000230024002500264E
:10019000103A28BF78C1FBD8520728BF30C148BFEA
:1001A0000B6070471FB51FBD10B510BD00F033F8D0
:1001B0001146FFF7F7FF00F08FFE00F051F803B48F
:1001C000FFF7F2FF03BC00F0C9FC000009488047BC
:1001D00009480047FEE7FEE7FEE7FEE7FEE7FEE729
:1001E000FEE7FEE7FEE7FEE704480549054A064B41
:1001F000704700009908000831010008A0000020A5
:10020000A0060020A0020020A00200207047704736
:10021000704770477047754600F028F8AE460500F5
:100220006946534620F00700854618B020B5FFF711
:10023000DBFFBDE820404FF000064FF000074FF015
:1002400000084FF0000B21F00701AC46ACE8C009F4
:10025000ACE8C009ACE8C009ACE8C0098D467047FD
:100260000446AFF300802046FFF7A9FF004870471F
:100270003C00002021B1826842F00102826003E06C
:10028000826822F0010282607047000010B50446C7
:100290001248844208D10121401500F0DFF9002105
:1002A000601500F0DBF917E00D48844208D1012108
:1002B000001500F0D3F90021201500F0CFF90BE074
:1002C0000848844208D10121C80300F0C7F9002181
:1002D0004FF4004000F0C2F910BD000000240140BE
:1002E00000280140003C0140014600208A6802F0DD
:1002F00004020AB1012000E0002070470146C86CEA
:1003000080B270470246002013680B400BB10120F9
:1003100000E000207047014600208A6802F00802D1
:100320000AB1012000E000207047000030B502460D
:100330000020002350680F4C20400D790C6844EADF
:1003400005242043506090680B4C2040D1E90254B2
:100350002C434D7944EA450420439060D06A20F450
:1003600070000C7C641EE4B2234340EA0350D06268
:1003700030BD0000FFFEF0FFFDF7F1FFF0B50446D1
:100380000D4600200021092D11DDE068A5F10A06C7
:1003900006EB4607072606FA07F18843A5F10A0689
:1003A00006EB460603FA06F10843E0600CE020691C
:1003B00005EB4507072606FA07F1884305EB4506D6
:1003C00003FA06F108432061072A0FDA606B561E14
:1003D00006EB86071F2606FA07F18843561E06EB32
:1003E000860605FA06F10843606322E00D2A0FDA5B
:1003F000206BD61F06EB86071F2606FA07F18843F7
:10040000D61F06EB860605FA06F10843206310E0C6
:10041000E06AA2F10D0606EB86071F2606FA07F131
:100420008843A2F10D0606EB860605FA06F108439D
:10043000E062F0BD816841F008018160704721B140
:10044000826842F4A002826003E0826822F4A00283
:1004500082607047816841F004018160704700BF8D
:10046000FEE770472DE9F0410246002500260020F6
:1004700000230024002791F803C00CF00F0591F829
:1004800003C00CF0100CBCF1000F03D091F802C0B7
:100490004CEA050591F800C0BCF1000F31D014689A
:1004A00000202BE04FF0010C0CFA00F3B1F800C073
:1004B0000CEA03069E4220D183004FF00F0C0CFA89
:1004C00003F7BC4305FA03FC4CEA040491F803C0AB
:1004D000BCF1280F06D14FF0010C0CFA00FCC2F859
:1004E00014C00AE091F803C0BCF1480F05D14FF0E9
:1004F000010C0CFA00FCC2F810C0401C0828D1D333
:100500001460B1F800C0BCF1FF0F34DD5468002066
:100510002EE000F1080C4FF0010808FA0CF3B1F8D6
:1005200000C00CEA03069E4221D183004FF00F0C5D
:100530000CFA03F7BC4305FA03FC4CEA040491F8F7
:1005400003C0BCF1280F05D100F1080C08FA0CF823
:10055000C2F8148091F803C0BCF1480F07D100F134
:10056000080C4FF0010808FA0CF8C2F81080401C83
:100570000828CED35460BDE8F0810246002093687D
:100580000B400BB1012000E0002070470161704773
:1005900000BFFEE700BFFEE77047000070B5002116
:1005A00000230F22C47804B3154C246804F4E064DB
:1005B000C4F5E064210AC1F10403CA40447804FA96
:1005C00003F184781440214309010E4C0678A155AB
:1005D000047804F01F050124AC4005786D11AD00CE
:1005E00005F1E025C5F8004109E0047804F01F0595
:1005F0000124AC40044D0678761145F8264070BDC4
:100600000CED00E000E400E080E100E0024901437D
:10061000024A1160704700000000FA050CED00E08E
:100620007047000001460020034A506820F4404013
:1006300008435060704700000010024029B1064A8C
:1006400092690243044B9A6104E0034A926982432F
:10065000014B9A61704700000010024029B1064A20
:10066000D2680243044BDA6004E0034AD268824352
:10067000014BDA60704700000010024030B50021E5
:100680000022002400232D4D6D6805F00C0121B1DE
:10069000042905D0082923D105E0294D056022E071
:1006A000274D05601FE0254D6D6805F47012234D40
:1006B0006D6805F48034022505EB92421CB9214D8A
:1006C000554305600BE01D4D6D6805F400351DB107
:1006D0001C4D5543056002E0194D5543056002E08D
:1006E000174D056000BF00BF144D6D6805F0F001A7
:1006F0000909154D6B5C0568DD4045600F4D6D685F
:1007000005F4E061090A104D6B5C4568DD408560C9
:100710000A4D6D6805F46051C90A0B4D6B5C456864
:10072000DD40C560054D6D6805F44041890B074DFE
:100730006B5CC568B5FBF3F5056130BD0010024088
:1007400000127A0000093D0024000020340000203F
:10075000704710B500F04CFA4FF4165000F092FCC0
:100760004FF4A060FFF752FF00F07EFB00F0D4FAD8
:1007700000F03EFC00F064FB00BF00F0C7FA002868
:10078000FBD010BD10B500F001F810BD0CB5002075
:10079000019000903348006840F48030314908608F
:1007A00000BF3048006800F4003000900198401C01
:1007B0000190009818B90198B0F5A06FF1D12948BF
:1007C000006800F4003010B10120009001E000202A
:1007D00000900098012843D12348006840F01000A1
:1007E000214908600846006820F0030008600846B8
:1007F000006840F0020008601A48406819494860E3
:100800000846406848600846406840F48060486098
:100810000846406820F47C1048600846406840F470
:10082000E81048600846006840F08070086000BF2B
:100830000C48006800F000700028F9D009484068B2
:1008400020F00300074948600846406840F0020075
:10085000486000BF0348406800F00C000828F9D148
:100860000CBD00000010024000200240042808D106
:100870004FF0E021096941F004014FF0E0221161DD
:1008800007E04FF0E021096921F004014FF0E02278
:10089000116170477047000010B51348006840F0C0
:1008A00001001149086008464068104908400E4997
:1008B0004860084600680E4908400B490860084631
:1008C000006820F4802008600846406820F4FE009C
:1008D00048604FF41F008860FFF754FF4FF000603E
:1008E0000449086010BD0000001002400000FFF83D
:1008F000FFFFF6FE08ED00E010B540F22551074875
:1009000000F038F820B1054800F0F0F8044908700C
:1009100040F22551014800F005F810BD00380140B3
:100920000000002010B50022002340F66A14A14206
:1009300000D100BF0A1201249440A3B2DC4304801A
:1009400010BD21B1828942F40052828104E0828983
:100950004DF6FF731A408281704702460020B1F5C0
:10096000007F00D100BF13880B400BB1012000E0D5
:100970000020704770B502460024002300250020A7
:1009800040F66A16B14200D100BFC1F3421501F032
:100990001F03012606FA03F3012D02D19689334085
:1009A00006E0022D02D1168A334001E0968A3340D8
:1009B0000C12012606FA04F41688344013B10CB167
:1009C000012000E0002070BDF0B5034600240026A1
:1009D0000025002040F66A17B94200D100BF184632
:1009E000C1F3421401F01F06012707FA06F5012C96
:1009F00001D10C3004E0022C01D1103000E01430A1
:100A00001AB107682F43076002E00768AF43076029
:100A1000F0BD00002DE9F04786B005460E460024E3
:100A2000A24600BFA1460027B08900B100BF2F46F3
:100A30002C8A4CF6FF700440F08804432C82AC8969
:100A40004EF6F3100440B088318908437189084399
:100A50000443AC81AC8A4FF6FF400440B0890443A4
:100A6000AC8201A8FFF70AFE1F48874202D1DDF8D9
:100A700010A001E0DDF80CA0A88900F4004040B10E
:100A80000AEBCA0000EB0A1031684900B0FBF1F82C
:100A900007E00AEBCA0000EB0A1031688900B0FBDE
:100AA000F1F86420B8FBF0F004012009642101FB97
:100AB0001089A88900F4004040B1322000EBC90041
:100AC000B0FBF1F000F00700044308E0322000EB37
:100AD00009106421B0FBF1F000F00F0004432C81F9
:100AE00006B0BDE8F0870000003801400146888864
:100AF000C0F30800704770B504460D4629462046ED
:100B000000F008F800BF80212046FFF726FF0028EC
:100B1000F9D070BDC1F30802828070472DE9F04121
:100B200005460C46260AE7B231462846FFF7F2FF93
:100B300000BF80212846FFF710FF0028F9D0394672
:100B40002846FFF7E7FF00BF80212846FFF705FF93
:100B50000028F9D0BDE8F08100BFFEE7014600BFE4
:100B60007047000000B587B001214FF40470FFF713
:100B700065FD4FF40040FFF755FD0820ADF8040077
:100B800000208DF8070001A91748FFF76BFC1748F4
:100B9000FFF77CFB002002908DF80C008DF80D0013
:100BA0004FF4602004900020059001208DF818007B
:100BB00002A90E48FFF7BAFB01210C48FFF75AFBC8
:100BC0000A48FFF737FC00BF0848FFF7A4FB0028DE
:100BD000FAD10648FFF73EFC00BF0448FFF784FB4C
:100BE0000028FAD107B000BD0010014000240140E8
:100BF00010B56FF00400FFF739FE0A4800680A4993
:100C0000B0FBF1F0094908700846007800EB40019C
:100C1000C1EBC0104FF6FF7101EAC0000449088023
:100C200010BD00001000002000127A0038000020E3
:100C30003A0000200146114A12884A434FF0E0234F
:100C40005A6100229A611A46126942F001021A6141
:100C500000BF4FF0E022106900F001021AB100F469
:100C60008032002AF5D04FF0E022126922F0010212
:100C70004FF0E0231A6100229A6170473A00002089
:100C80000146114A12784A434FF0E0235A6100228C
:100C90009A611A46126942F001021A6100BF4FF0D0
:100CA000E022106900F001021AB100F48032002A3B
:100CB000F5D04FF0E022126922F001024FF0E0235C
:100CC0001A6100229A6170473800002010B50D4863
:100CD000006820F0706040F000600A490860192048
:100CE000FFF7CEFF0848006848B93220FFF7C8FF79
:100CF00005480068012800D110BD0020FCE7002055
:100D0000FAE70000001001401801224210B500F07F
:100D100047F8FFF7DBFF10BD08B501211020FFF7F2
:100D20008DFC4020ADF8000010208DF8030003205A
:100D30008DF8020069460248FFF794FB08BD0000E9
:100D4000001001407CB505460E4600F029F8FFF77B
:100D5000BDFF10B3002405E000F084F90DF8040095
:100D6000601CC4B2052CF7DB9DF800009DF8011053
:100D700008449DF8021008449DF8031008449DF8AB
:100D80000410884207D19DF8000030709DF80200E1
:100D9000287000207CBD0120FCE70220FAE700005B
:100DA00010B50B48006820F0706040F040700849B2
:100DB00008600020074908601420FFF73BFF01206E
:100DC0000549C1F898011E20FFF75AFF10BD000029
:100DD00000100140980122420000224210B5072372
:100DE00001220D210848FFF7C9FA01210648FFF743
:100DF00026FB00BF02210448FFF784FA0028F9D03F
:100E00000148FFF77BFA10BD0024014010B5FFF741
:100E1000E5FF10BD10B54FF400710848FFF7ADFBBA
:100E2000012800D110BD4FF400710448FFF7A5FB65
:100E300008B90020F6E70220F4E70000000C0140AA
:100E400008B501210820FFF7F9FB4FF40070ADF859
:100E5000000028208DF8030069460248FFF702FBD6
:100E600008BD00000018014008B501210820FFF767
:100E7000E5FB4FF4E040ADF8000010208DF80300D2
:100E800003208DF8020069460448FFF7EBFA4FF49F
:100E9000E0410248FFF77AFB08BD0000000C01406A
:100EA0000120044908600449C1F8B4010149083926
:100EB00008607047B8812142008021420020044927
:100EC00008600449C1F8B401014908390860704755
:100ED000B881214200802142FFF73BFC6DE0374999
:100EE0003748FFF72FFF00F087F83649086036498A
:100EF0003448006800F052FE8146344900F06CFD31
:100F0000044600F03DFD0746314A324B00F03CF903
:100F1000054600F007F93049086030492E4800685E
:100F200000F03CFE044600F019FE2D490880FFF752
:100F300071FF2C4908704FF4FA70FFF77BFE2A48C6
:100F400000786138062836D2DFE800F003090F1870
:100F5000212CFFF7B3FF0020234908702CE0FFF796
:100F60009FFF00202049087026E0154801781F489F
:100F7000FFF7C1FD00201C4908701DE00F480178F3
:100F80001A48FFF7B8FD00201749087014E0FFF772
:100F900025FF044621461548FFF7C0FD00201249F1
:100FA000087009E00F4801781048FFF7B3FD0020F2
:100FB0000D49087000E000BF00BF90E7020000206C
:100FC0000100002008000020000020410000044231
:100FD000B81E85EB51B89E3F0C00002000007A44FB
:100FE0000400002003000020000000200038014021
:100FF00010B5FFF7B7FD10BD2DE9F05FFFF706FF55
:10100000834600F0C1FA80464FF06632074B00F08D
:10101000CFFA06460022064B00F05EF9044600F0C7
:1010200081F882465046BDE8F09F000066660A409F
:101030000000B04010B500BF094800680028FBD18F
:1010400000BF074800680028FBD02820FFF718FEE3
:101050000348006808B1012010BD0020FCE7000033
:101060001801224270B50024002506E06006040E37
:10107000FFF7E0FF0443681CC5B2082DF6DB2046ED
:1010800070BD000010B586B00446012144F2040092
:10109000FFF7D4FA4FF40070ADF8140003208DF878
:1010A000160018208DF8170005A91C48FFF7DAF97B
:1010B0004FF48060ADF8140004208DF8170005A9E6
:1010C0001648FFF7CFF925208DF8000003208DF892
:1010D00001008DF8020001208DF803006846FFF73B
:1010E0005DFA01940020ADF80800ADF80A00ADF8F3
:1010F0000C00ADF810000C20ADF80E0001A9084856
:10110000FFF788FC012240F225510548FFF75CFCFF
:1011100001210348FFF715FC06B010BD000801408F
:101120000038014021F00042A2F16052B2F5801F68
:1011300001F0004328BFD2F17F6C0BD95FEA001C9D
:1011400043EAC20242EB507018BF704728BF20F03C
:1011500001007047B2F5801FBCBF184670474FEAC8
:10116000410C1CF5001F02D2084600F0DEBD70B530
:1011700000F0C8FA00000089FFF7F6BF4FF000400A
:10118000A0F580007047000010B591EA030F48BF3A
:1011900083F0004300F11283841A71EB030C05D233
:1011A000121943EB0C03001B61EB0C01DFF824E187
:1011B0004FEA1154A4EB135C1EEA430F18BF9EEADA
:1011C000445F73D023EA0E03DCF1200E21EA0451C0
:1011D00043F4801332D322FA0CFE10EB0E0023FAF4
:1011E0000CFE41EB0E01CCF1200E03FA0EFE10EBCB
:1011F0000E0051F10001B1F5801FCCF1200E32D26A
:1012000001EB045112FA0EF2BDE8104058BF7047CE
:10121000401C38BF5FEA420218BF7047002814BF65
:1012200020F0010041F100014FEA410313F5001FD6
:1012300038BF7047A1F1C04100F0B2BA012A43EBB8
:101240000302ACF1200CDCF11F0E32BF4FF0000E98
:1012500023FA0CF310EB030041EB0451B4EB115FE4
:10126000D0D0A1EB045101F5801149085FEA3000AC
:1012700001EB04510ED350F1000038BF12FA0EFEFC
:1012800008D1BDE81040C9E7401C38BF5FEA420200
:10129000CAD1C3E7BDE810404FEA410313F5001F70
:1012A00038BF7047A1F1C04100F07ABA9EEA445FAE
:1012B00008D011EA5E0FBDE8104004BF01F0004104
:1012C00000207047BDE8104070B500F01BFA00BF69
:1012D00064FBBE3E0000E0FF2DE9C04130B4DFF802
:1012E000A0C23CEA111418BF3CEA131400F0EC80D1
:1012F00081EA03051CEA111444EAD57418BF1CEAFC
:10130000131500F0C780A4EB05044FF0004545EA33
:10131000C12145EAC32341EA505143EA525304F143
:101320007F74994204F500344FEAC0204FEAC2228C
:1013300008BF904200F09C804FEA13650FF2401600
:10134000765D4FEA134506FB05F7C7F1807706FB8C
:1013500007F74FEAD737A7FB03687642C8F580380E
:10136000A7FB06CE38BFA8F1010807FB08E64FF03F
:10137000000EA6FB028CE6FB03CEDCF1000CCEF1E6
:10138000004E38BFAEF1010EA6FB0C584FF000071F
:101390004FF00005E6FB0E87A1FB08C6A0FB07CEB9
:1013A00016EB0E0645F10005E1FB076515F1E04E71
:1013B0007EBFA4F580345FEA46066D4116F18007D2
:1013C00045F100054FEA17274FEA066647EA056729
:1013D000A6F1DE46B6F1805F4FEA15251FD93846E3
:1013E00024F0010C05EBC471BCF1FE6F01EB0C1194
:1013F00002D8F0BCBDE8008124425CBF01F5801E2C
:101400009EEAC47F02D4F0BCBDE80081244238D4F7
:10141000F0BCA1F1C041BDE8004100F0C1B94FEA04
:10142000D22242EA43524FEAD323A7FB02864FEA75
:10143000D02040EA415007FB03661EEA0E0F4FEA38
:10144000D12105FB026658BFA6EB0056B6EB00564D
:101450004FEA520E4EEAC37E18EB0E0E56EB530EB9
:10146000BDD518EB02085E417F1C55F10005B6E7BB
:101470004FF480154FF000074FF000064FF00008C2
:10148000ADE7F0BC4FF0000001F1C04101F00041B8
:10149000BDE8008111EA0C1F0CEA131500D00CE026
:1014A00013EA0C1F00F025804FF00000F0BC81EA29
:1014B000030101F00041BDE80081F0BCBDE800413E
:1014C00081EA030100F06CB9F0BCBDE8004170B5E1
:1014D00000F018F9097EFC3E00F007B881EA03012C
:1014E0004FF0000001F00041704781EA030100F075
:1014F00057B9F0BCBDE800414FF0000021497047EA
:10150000FFFDFBF9F7F5F4F2F0EEEDEBE9E8E6E4C8
:10151000E3E1E0DEDDDBDAD8D7D5D4D3D1D0CFCD4F
:10152000CCCBCAC8C7C6C5C4C2C1C0BFBEBDBCBB88
:10153000BAB9B8B7B6B5B4B3B2B1B0AFAEADACAB83
:10154000AAA9A8A8A7A6A5A4A3A3A2A1A09F9F9E5D
:101550009D9C9C9B9A99999897979695959493930F
:10156000929191908F8F8E8E8D8C8C8B8B8A8989A6
:101570008888878786858584848383828281818029
:101580000000FF070000F87FB0FA80F310FA03F1C3
:101590000AD0C3F11D0303F580634FEA41504FEABF
:1015A000035202EBD12170474FF00000704700005A
:1015B000DFF848C170B51CEA111E1EBF1CEA1315E6
:1015C0009EEA0C0F95EA0C0F00F06F8081EA03048D
:1015D00023EA4C134EEAD47E21EA4C1141F48011E7
:1015E00043F48013AE44A1FB024CA0FB0365AEF1B3
:1015F0007F7E361955EB0C05A1FB034C4CF1000323
:10160000A0FB021C16EB0C06654153F100030942D6
:1016100018BF46F0010613F4007F0BD14FEA0331E7
:101620004FEA0530340341EA155140EA16506FF095
:1016300003020AE04FEAC3214FEAC520F40241EA5F
:10164000555140EA56506FF0020202EB2E4201EB78
:10165000025585EACE710AD05FEA440C18BF24F027
:10166000004450F1000041F1000120EAD47040F242
:10167000FE7C624500D270BDA84214BF4FF080448A
:101680004FF04044002E08BF0024BEF1806FA8BF79
:10169000A1F1C041BDE8704080F282804FF00000AF
:1016A00001F1C04101F0004170479EEA0C0F0CEAC5
:1016B000131518BF95EA0C0F06D04FF0000081EA11
:1016C000030E0EF0004170BD00F01CF88900013ED1
:1016D00000F007B800F009B84FEA430C5FEA5C5C21
:1016E00008D081EA030100F05BB84FEA410C5FEAE1
:1016F0005C5CF6D14FF00000014970470000FF0725
:101700000000F87F0EF1020E2EF0030E5EF8046B5F
:10171000364205D4012A43EB030515F5001F12D804
:10172000012841EB010C1CF5001F0CD80ED14FEA2B
:10173000D17C15F5001F0CEB4C0C0CF1020C08BF12
:101740004CEBD37C04E04FF0080C01E04FEAD37C73
:101750000CEB4C0526FA05F606F00706B6F1040C6C
:1017600006D20EEB860CBDE870404CF0010C6047D1
:10177000DFE80CF0090B02024FF000414FF00000CF
:10178000A1F5002170BD19461046012851EB010456
:1017900018BFD4F5001484BF002001F0004170BDD3
:1017A0000808A0F500114FEA3101704710B591EA21
:1017B000030F48BF83F000433FF5EEAC841A71EB92
:1017C000030C07D212198CF0004C43EB0C03001BE6
:1017D00061EB0C01DFF8A4E14FEA1154A4EB135CB8
:1017E0001EEA430F18BF9EEA445F00F0B08023EA70
:1017F0006E03524221EA0451C3EB6E0338BF5B1EF5
:10180000DCF1200E25D322FA0CFE10EB0E0043FA79
:101810000CFE41EB0E01CCF1200E03FA0EFE10EB94
:101820000E0051F10001CCF1200E29D412FA0EF273
:1018300001EB0451BDE8104058BF7047401C1CBF6D
:10184000B2F1004F704700280CBF491C20F0010086
:10185000704712EB020E43EB030218BF4FF0010E6C
:101860004EEA4202ACF1200CDCF11E0E54D943FAD0
:101870000CFE10EB0E0051F1FF31CCF11E0ED5D550
:101880000EF1010E12FA0EFE404141EB010101EB97
:10189000445C5FEA5C5C10D910EBDE7001EB045134
:1018A00038BFBEF1004FBDE8104018BF7047002898
:1018B0000CBF491C20F00100704730D24FEAD42CF5
:1018C00011F5001124F400641BD0B1FA81F20B3A37
:1018D000A41AA41ED2F12003914030FA03F3194355
:1018E000904001EBCC71002C01EB0451BDE810409D
:1018F000A8BF704701F1C0414FF0000001F0004166
:101900007047B0FA80F310FA03F100D110BDE41A69
:10191000173C4805C90AE4E701EB045110BD491022
:1019200001EB0451BDE810404FEA300002E04FF0F7
:10193000000170474A0008BF0042F8D0B2F5001F0E
:1019400028BF704701F000414FF0000070479EEA49
:10195000445F07D011EA5E0FBDE8104004BF0021CC
:1019600000207047BDE8104070B5FFF7CBFE00BF08
:1019700040DFF63E83F00041104670470000E0FF74
:1019800043004FEAD30C4FEA3C0C43401FBF4007D3
:101990000CF1605113F0FE4F70471CF0006F03D143
:1019A00000200CF0004170470CF0004343EA5070F7
:1019B00010B540EACC0000F072F900BF00000092C0
:1019C0004FEA0001FFF7ECBE4FF000414FF000007E
:1019D000A1F50021704700004FF47F0C1CEAD012E3
:1019E0001EBF1CEAD11392EA0C0F93EA0C0F00F011
:1019F000858090EA010F48BF42F4807240F4000CE9
:101A000041F400002CF07F4120F07F4000B581427E
:101A1000A2EB03020FF2081CACEB504EC0F1000029
:101A20009EF800E04FEA4E0E00FB0EFC38BF490066
:101A30004FEA2C1C02F5FA020CFB0EF34FEACE1E05
:101A40004FEA112C4FEAC1210EEB635E42EB2242BA
:101A50000EFB0CFC4FEA1C5300FB03114FEA112C48
:101A60004FEA01310EFB0CFC4FEADC4C00FB0C1181
:101A7000C14228BF09184CEB03335DF804EB10EBAF
:101A8000410143EBC250B2F57C0F38BF704729D5F6
:101A900012F0F00F1CBF00F1C04000F00040704792
:101AA000008182838485868788898B8C8D8E8F9137
:101AB0009293959697999A9C9D9FA0A2A3A5A7A85B
:101AC000AAACAEB0B2B3B5B7B9BCBEC0C2C5C7C987
:101AD000CCCED1D4D7D9DCDFE2E6E9ECF0F3F7FAEB
:101AE000FE0000004FEA400C0CF1807CBCF17E4F00
:101AF00028BF7047B0F1C04000F017B990EA010F5D
:101B00000CEAD11348BF42F48072624538BF634586
:101B100007D213F47F0F16D080EA010000F00040D6
:101B2000704710B500F0BBF8097EFC3E00F005B828
:101B300080EA010000F00040704780EA010000F0F8
:101B4000004000F0F2B812F47F0F04BF0248704763
:101B500080EA010000F0E9B80000C07FC10DD1F1BA
:101B60009E0206DB4FEA002343F0004323FA02F013
:101B70007047004207D54FEA4001B1F1FE4F02D253
:101B80004FF00000704710B500F089F849922480AA
:101B9000002070476FEA2000704700004FF47F0C70
:101BA0001CEAD0121EBF1CEAD11392EA0C0F93EA72
:101BB0000C0F00F0478090EA010F48BF42F480729A
:101BC0004FF0004C4CEA00204CEA012102EB0302EA
:101BD000A0FB0113A2F50002002918BF43F0010386
:101BE0005B0028BF4FEA330342EB22425FEA132C2B
:101BF0004CEBC2502EBFBCEB436FB2F57C0F70476D
:101C00004FEA036CBCF1004F08BF20F00100B2F5B1
:101C10007C0F38BF70470BD582F0FF0212F5803F72
:101C2000C8BF704700F1C040D8BF00F00040704707
:101C300000F5000C5FEA4C0C48BF7047B0F1C040A3
:101C400000F073B890EA010F0CEAD11348BF42F4D8
:101C50008072624538BF634504D280EA010000F01B
:101C60000040704710B500F01AF800BF8900013E2F
:101C700000F007B800F009B85FEA410C5FEA1C6C9D
:101C800008D080EA010000F050B85FEA400C5FEA3B
:101C90001C6CF6D14FF00040A0F5800070470EF1AB
:101CA000020E2EF0030E5EF8044B244204D44FEAD9
:101CB0004102B2F17F4F11D84FEA4003B3F17F4F99
:101CC0000CD80ED14FEAD07CB2F17F4F0CEB4C0C0C
:101CD0000CF1020C08BF4CEBD17C04E04FF0080C77
:101CE00001E04FEAD17C0CEB4C0324FA03F404F03E
:101CF0000704B4F1040C06D20EEB840CBDE81040CE
:101D00004CF0010C6047DFE80CF0070802024FF0CE
:101D10000040A0F5800010BD0846420018BFD2F177
:101D2000807288BF00F0004010BDFF2141EAD05012
:101D3000C0057047541D0008000000203C00000052
:101D40006C010008901D00083C00002064060000A3
:101D500088010008000000000000000000000000F2
:101D60000000000000A24A04000000000000000083
:101D70000102030406070809000000000102030431
:101D80000102030406070809020406080000000017
:0400000508000131BD
:00000001FF
